:100000000C9458000C9480000C9480000C94800098
:100010000C9480000C9480000C9480000C94800060
:100020000C9480000C9480000C9480000C94800050
:100030000C9480000C9480000C9480000C94800040
:100040000C9408040C9480000C9480000C948000A4
:100050000C9480000C9480000C9480000C94800020
:100060000C9452040C94800000000000250028002D
:100070002B00040404040404040402020202020229
:10008000030303030303010204081020408001025C
:1000900004081020010204081020000000080002DB
:1000A00001000003040700000000000000008005BC
:1000B00011241FBECFEFD8E0DEBFCDBF11E0A0E01E
:1000C000B1E0E4E9FFE002C005900D92AA32B10769
:1000D000D9F722E0AAE2B1E001C01D92A830B20730
:1000E000E1F710E0C8E5D0E004C02197FE010E94CE
:1000F000AE07C735D107C9F70E94A2050C94C807FF
:100100000C940000382F2091EF019091EE012132E4
:1001100008F049C08091CB018111FCCF42E04093AF
:10012000CB013093CA013FEF3093C9011092C8014F
:100130002093C701AEECB1E047EA51E0FA013E2F4F
:10014000341B321718F43D913193F9CF1092A60168
:100150002091A601990F922B9093A6019091A50151
:10016000913061F41092A5019091A6019093BB008B
:100170009091BC0093FDF8CF95EC01C095EE909363
:10018000BC009091CB019230E1F39091C9019F3F67
:1001900079F08091C901803241F08091C9018033AA
:1001A00031F084E005C081E003C082E001C083E05B
:1001B0001092CD011092EF011092CC010895809120
:1001C000830190E020918401821B91090895CF92D0
:1001D000DF92EF92FF920F931F93CF93DF936C0107
:1001E0007A018B01C0E0D0E0CE15DF0589F0D8019F
:1001F0006D918D01D601ED91FC910190F081E02D82
:10020000C6010995892B11F47E0102C02196ECCF1D
:10021000C701DF91CF911F910F91FF90EF90DF9079
:10022000CF90089590E0FC01E656FF4F3491FC0119
:10023000EA57FF4F2491FC01EE58FF4FE491EE2363
:1002400009F43BC0332339F1333091F038F43130C5
:10025000A9F0323001F584B58F7D12C0373091F0AE
:100260003830A1F03430B9F4809180008F7D03C024
:10027000809180008F77809380000DC084B58F7748
:1002800084BD09C08091B0008F7703C08091B00019
:100290008F7D8093B000F0E0EE0FFF1FE859FF4F15
:1002A000A591B4918FB7F894EC91611103C020959A
:1002B0002E2301C02E2B2C938FBF08953FB7F894A7
:1002C0008091720190917301A0917401B0917501B8
:1002D00026B5A89B05C02F3F19F00196A11DB11DA1
:1002E0003FBFBA2FA92F982F8827820F911DA11DDC
:1002F000B11DBC01CD0142E0660F771F881F991F19
:100300004A95D1F708958F929F92AF92BF92CF9264
:10031000DF92EF92FF926B017C010E945E014B0124
:100320005C01C114D104E104F104F1F00E945E010A
:10033000DC01CB0188199909AA09BB09883E9340C1
:10034000A105B10570F321E0C21AD108E108F10856
:1003500088EE880E83E0981EA11CB11CC114D10444
:10036000E104F10419F7DDCFFF90EF90DF90CF901B
:10037000BF90AF909F908F90089585ED8093BC00C3
:100380008091BC0084FDFCCF1092CB010895409178
:100390004C01262F30E0240F311D21323105DCF4D1
:1003A0002091CB012430C9F4FC0180E090E0861755
:1003B00058F430914C012191DC01A65DBE4FA30F92
:1003C000B11D2C930196F3CF80914C01680F60937F
:1003D0004C0180E0089581E0089582E00895109234
:1003E000CB0181E08093CA011092A50161E082E116
:1003F0000E94120161E083E10E941201E9EBF0E04A
:1004000080818E7F808380818D7F808388E480934C
:10041000B80085E48093BC0008950895E0918401BC
:1004200080918301E81730F4F0E0EB57FE4F8081B4
:1004300090E008958FEF9FEF08959091840180914F
:100440008301981750F4E92FF0E0EB57FE4F20811D
:1004500030E09F5F9093840102C02FEF3FEFC9010E
:100460000895CF92DF92EF92FF920F931F93CF9355
:10047000DF937C01262F972F8A018091CC0188235E
:1004800091F0C62FD72F6E01C40ED51ECC15DD05F9
:1004900071F06991D701ED91FC910190F081E02D0F
:1004A000C7010995F3CF642F822F0E94C701C801AD
:1004B000DF91CF911F910F91FF90EF90DF90CF9040
:1004C0000895CF93DF931F92CDB7DEB76983209154
:1004D000CC012223D1F02091EF01203240F021E025
:1004E00030E0FC013383228380E090E015C08091EE
:1004F000CD01E82FF0E0E253FE4F998190838F5FAA
:100500008093CD018093EF0105C061E0CE0101969B
:100510000E94C70181E090E00F90DF91CF91089594
:1005200021E02093CC0120E42093EE011092CD0134
:100530001092EF01FC01608180EF91E00E94610266
:1005400081E00C948200FC01248131E03093CC01E5
:100550002093EE011092CD011092EF018385682B5C
:1005600080EF91E00E94610281E00C9482000F9381
:100570001F93CF938C01C62F0E94A3026C2F64603F
:10058000C8010E94A3026C2F6B7FC8010E94A302C6
:1005900083EC90E00197F1F7CF911F910F910895AF
:1005A000FF920F931F93CF93DF931F92CDB7DEB7C8
:1005B0008C01F62E962F907F692F642BC8014983FA
:1005C0000E94B70280E1F89EB00111244981642B9A
:1005D000C8010F90DF91CF911F910F91FF900C9464
:1005E000B702CF93DF93CDB7DEB728970FB6F89455
:1005F000DEBF0FBECDBF98E0E8E0F1E0DE0111966E
:1006000001900D929A95E1F790910502981710F4D8
:100610008FEF890FFE013196E80FF11DE80FF11DF4
:100620006081606840E08CEF91E028960FB6F89406
:10063000DEBF0FBECDBFDF91CF910C94D00241E061
:100640000E94D00281E090E008958F929F92AF9235
:10065000BF920F931F93CF93DF93CDB7DEB7A197D0
:100660000FB6F894DEBF0FBECDBF19A2423008F41A
:100670004AE08E010F5D1F4F842E912CA12CB12CCE
:10068000A50194010E948107E62FB901CA0101501A
:100690001109EA3014F4E05D01C0E95CD801EC9383
:1006A000232B242B252B61F70115110571F0F8017F
:1006B00001900020E9F73197AF01401B510BB801C1
:1006C0008CEF91E00E94E70002C080E090E0A196EC
:1006D0000FB6F894DEBF0FBECDBFDF91CF911F9153
:1006E0000F91BF90AF909F908F900895CF92DF921F
:1006F000EF92FF92CF93DF936C01990FEE08FF0802
:10070000F7FE1FC0E091FC01F091FD010190F08126
:10071000E02D6DE28CEF91E00995EC0166277727DB
:10072000CB016C197D098E099F094AE00E942503BF
:100730008C0F9D1FDF91CF91FF90EF90DF90CF90B6
:1007400008954AE0C701B601DF91CF91FF90EF9085
:10075000DF90CF900C942503CF93DF93EC01809131
:10076000CB018111FCCF91E09093CB019093CA0112
:100770008FEF8093C9011092C8019093C7019093A5
:10078000A6019091A60190689093A6018091A50181
:10079000813061F41092A5018091A6018093BB0085
:1007A0008091BC0083FDF8CF85EC01C085EE80937D
:1007B000BC008091CB018130E1F38091C80182308F
:1007C00018F49091C80101C092E0A7EAB1E025E8D1
:1007D00031E0F9018E2F821B891718F48D918193D6
:1007E000F9CF10928401909383019230F0F380EF5F
:1007F00091E00E941D02888380EF91E00E941D021B
:10080000898381E090E0DF91CF9108950E94C30732
:100810001F920F920FB60F9211242F933F938F9335
:100820009F93AF93BF938091770190917801A091AE
:100830007901B0917A013091710123E0230F2D37B6
:1008400020F40196A11DB11D05C026E8230F0296D4
:10085000A11DB11D209371018093770190937801C0
:10086000A0937901B0937A01809172019091730104
:10087000A0917401B09175010196A11DB11D8093E5
:10088000720190937301A0937401B0937501BF91AD
:10089000AF919F918F913F912F910F900FBE0F902D
:1008A0001F9018951F920F920FB60F9211242F933D
:1008B0003F934F935F936F937F938F939F93AF93E8
:1008C000BF93EF93FF938091B900887F803609F43E
:1008D0009CC068F5883209F45BC090F4803109F45B
:1008E00054C038F4882309F4F6C0883009F44DC0A8
:1008F000F6C0883109F44CC0803209F45DC0EFC005
:10090000803409F468C048F4803309F455C0883352
:1009100009F0E5C08093C901D8C0803509F44FC003
:10092000883509F45DC0883409F0D9C0D6C088394B
:1009300009F4C7C0A8F4883709F467C038F48836CA
:1009400009F463C0803709F460C0C9C0883809F46D
:10095000B8C0803909F45FC0803809F0C0C05BC0FE
:10096000803B09F486C038F4803A09F466C0883ABE
:1009700009F47FC0B4C0803C09F4A7C0883C09F4E6
:10098000A4C0883B09F48AC0AAC08091A60110C007
:100990009091C8018091C701981770F5E091C80146
:1009A00081E08E0F8093C801F0E0E955FE4F808111
:1009B0008093BB0085EC86C08093C9018EC0E09116
:1009C000C80181E08E0F8093C8018091BB00F0E0E8
:1009D000E955FE4F80839091C8018091C7016EC098
:1009E000E091C80181E08E0F8093C8018091BB0027
:1009F000F0E0E955FE4F80838091CA0181116DC0FE
:100A000081E08093A50184EA61C083E08093CB01FB
:100A100010927001CFCF80917001803208F051C0E8
:100A2000E091700181E08E0F809370018091BB0096
:100A3000F0E0E05BFE4F8083BDCF85EC8093BC008F
:100A40001092CB0180917001803230F4E0917001FE
:100A5000F0E0E05BFE4F10826091700170E0E09189
:100A60004E01F0914F0180E591E0099510927001DF
:100A700036C084E08093CB0110924D0110924C015E
:100A8000E0914A01F0914B01099580914C0181114F
:100A900005C081E080934C0110922A01E0914D0144
:100AA00081E08E0F80934D01F0E0E65DFE4F808186
:100AB0008093BB0090914D0180914C01981708F4F0
:100AC00079CF85E88093BC000AC085EC8093BC0098
:100AD0001092CB0104C01092C9010E94BD01FF9188
:100AE000EF91BF91AF919F918F917F916F915F91A6
:100AF0004F913F912F910F900FBE0F901F9018951F
:100B0000E0EFF1E01382128288EE93E0A0E0B0E023
:100B100084839583A683B78384E191E09183808366
:100B2000ECEFF1E01382128284E291E09183808302
:100B300087E2848380E1808782E08187128688E073
:100B400083870895CF93DF9300D000D0CDB7DEB771
:100B5000789484B5826084BD84B5816084BD85B598
:100B6000826085BD85B5816085BD80916E008160A4
:100B700080936E001092810080918100826080934A
:100B8000810080918100816080938100809180004C
:100B90008160809380008091B10084608093B10077
:100BA0008091B00081608093B00080917A00846071
:100BB00080937A0080917A00826080937A0080919D
:100BC0007A00816080937A0080917A0080688093B7
:100BD0007A001092C1001092840110928301109249
:100BE000CD011092EF010E94EF011092010280915D
:100BF0000502823018F098E090930102909106026D
:100C0000992339F0813029F4809101028460809326
:100C1000010262E370E080E090E00E948301609155
:100C200007028CEF91E00E94A30268EE73E080E07F
:100C300090E00E94830160E38CEF91E00E94B70294
:100C40000BE416E4C8010197F1F760E38CEF91E043
:100C50000E94B702C8010197F1F760E38CEF91E0C1
:100C60000E94B70283E592E00197F1F760E28CEF12
:100C700091E00E94B70260910102606240E08CEF57
:100C800091E00E94D00284E08093020240E06CE098
:100C90008CEF91E00E94D00240E061E08CEF91E0A7
:100CA0000E94D0020BE31FE1C8010197F1F782E037
:100CB0008093030240E066E08CEF91E00E94D00256
:100CC00040E062E08CEF91E00E94D002C801019701
:100CD000F1F740E060E48CEF91E00E94D00200E088
:100CE00011E0F80161918F018CEF91E00E941F03E8
:100CF000F1E008301F07A9F788E08093070260E061
:100D00008CEF91E00E94A3021092CD011092EF01AE
:100D10000E94EF0111E01093CC0180E48093EE017A
:100D200081E00E948200811102C01093760155EE8D
:100D3000952E04E610E06BE3E62E6FE1F62E70E0F0
:100D4000C72E70E0D72E40EE842E2FB7F8948091F6
:100D5000770190917801A0917901B0917A012FBF2C
:100D600080937F0190938001A0938101B0938201D1
:100D700060E08DE00E9412019C82CE0104960E94E8
:100D80009002CE0101960E94AC032981822F90E04F
:100D9000A0E0B0E04427582F692F7A2F8A819A016A
:100DA000AB01282BA4EDB0E30E94A3075C0128E56A
:100DB000A21A22E0B20A8B82CE0103960E94900210
:100DC000CE0101960E94AC032981822F90E0A0E021
:100DD000B0E04427582F692F7A2F8A819A01AB01FE
:100DE000282BA4EAB4E40E94A3078D549241B801D1
:100DF0000E946D073B0170937E0160937D01C501E8
:100E0000B8010E94590770937C0160937B0140E018
:100E100061E08CEF91E00E94D002C7010197F1F7E9
:100E200080E00E94F102C3010E947603E091FC0180
:100E3000F091FD010190F081E02D60E08CEF91E0F8
:100E4000099581E00E94F10280917B0190917C01E3
:100E50000E94760341E050E068E271E08CEF91E09F
:100E60000E94E70061E08DE00E9412012FB7F89424
:100E70008091770190917801A0917901B0917A01E8
:100E80002FBF40917F01509180016091810170914D
:100E90008201841B950BA60BB70B883E9340A105DE
:100EA000B10500F3C114D10409F44FCF0E94000032
:100EB0004ACFAA1BBB1B51E107C0AA1FBB1FA61725
:100EC000B70710F0A61BB70B881F991F5A95A9F7F3
:100ED00080959095BC01CD01089597FB072E16F4DF
:100EE000009407D077FD09D00E94590707FC05D070
:100EF0003EF4909581959F4F0895709561957F4F31
:100F00000895A1E21A2EAA1BBB1BFD010DC0AA1F4A
:100F1000BB1FEE1FFF1FA217B307E407F50720F062
:100F2000A21BB30BE40BF50B661F771F881F991FDD
:100F30001A9469F760957095809590959B01AC0126
:100F4000BD01CF0108950E94B407A59F900DB49FE5
:100F5000900DA49F800D911D11240895EE0FFF1F89
:100F60000590F491E02D0994A29FB001B39FC001B8
:100F7000A39F700D811D1124911DB29F700D811DC5
:100F80001124911D089581E090E0F8940C94C80715
:040F9000F894FFCF03
:100F940008F4084304044300000040001400540013
:100FA4000000000061023102DF001D020E020D028A
:0A0FB400000000001F03E700250005
:00000001FF
